{
  "contractName": "currencyOracle",
  "abi": [
    {
      "constant": true,
      "inputs": [],
      "name": "updateGas",
      "outputs": [
        {
          "name": "",
          "type": "uint256"
        }
      ],
      "payable": false,
      "stateMutability": "view",
      "type": "function"
    },
    {
      "constant": true,
      "inputs": [],
      "name": "operator",
      "outputs": [
        {
          "name": "",
          "type": "address"
        }
      ],
      "payable": false,
      "stateMutability": "view",
      "type": "function"
    },
    {
      "constant": true,
      "inputs": [],
      "name": "updateFee",
      "outputs": [
        {
          "name": "",
          "type": "uint256"
        }
      ],
      "payable": false,
      "stateMutability": "view",
      "type": "function"
    },
    {
      "constant": true,
      "inputs": [],
      "name": "owner",
      "outputs": [
        {
          "name": "",
          "type": "address"
        }
      ],
      "payable": false,
      "stateMutability": "view",
      "type": "function"
    },
    {
      "constant": true,
      "inputs": [],
      "name": "fee",
      "outputs": [
        {
          "name": "",
          "type": "uint256"
        }
      ],
      "payable": false,
      "stateMutability": "view",
      "type": "function"
    },
    {
      "constant": true,
      "inputs": [],
      "name": "ids",
      "outputs": [
        {
          "name": "",
          "type": "uint256"
        }
      ],
      "payable": false,
      "stateMutability": "view",
      "type": "function"
    },
    {
      "constant": true,
      "inputs": [],
      "name": "gasPrice",
      "outputs": [
        {
          "name": "",
          "type": "uint256"
        }
      ],
      "payable": false,
      "stateMutability": "view",
      "type": "function"
    },
    {
      "inputs": [],
      "payable": false,
      "stateMutability": "nonpayable",
      "type": "constructor"
    },
    {
      "payable": true,
      "stateMutability": "payable",
      "type": "fallback"
    },
    {
      "anonymous": false,
      "inputs": [
        {
          "indexed": false,
          "name": "id",
          "type": "uint256"
        },
        {
          "indexed": false,
          "name": "symbol",
          "type": "string"
        }
      ],
      "name": "addNewCurrencyEvent",
      "type": "event"
    },
    {
      "anonymous": false,
      "inputs": [
        {
          "indexed": true,
          "name": "from",
          "type": "address"
        },
        {
          "indexed": false,
          "name": "id",
          "type": "uint256"
        }
      ],
      "name": "requestCurrencyUpdateEvent",
      "type": "event"
    },
    {
      "anonymous": false,
      "inputs": [
        {
          "indexed": false,
          "name": "id",
          "type": "uint256"
        }
      ],
      "name": "updateCurrencyEvent",
      "type": "event"
    },
    {
      "anonymous": false,
      "inputs": [
        {
          "indexed": false,
          "name": "value",
          "type": "uint256"
        }
      ],
      "name": "updatedFeeEvent",
      "type": "event"
    },
    {
      "anonymous": false,
      "inputs": [
        {
          "indexed": false,
          "name": "value",
          "type": "uint256"
        }
      ],
      "name": "updatedGasPriceEvent",
      "type": "event"
    },
    {
      "anonymous": false,
      "inputs": [
        {
          "indexed": false,
          "name": "addr",
          "type": "address"
        },
        {
          "indexed": false,
          "name": "amount",
          "type": "uint256"
        }
      ],
      "name": "collectedBalanceFundsEvent",
      "type": "event"
    },
    {
      "anonymous": false,
      "inputs": [
        {
          "indexed": false,
          "name": "addr",
          "type": "address"
        }
      ],
      "name": "addedNewOperatorEvent",
      "type": "event"
    },
    {
      "constant": false,
      "inputs": [
        {
          "name": "_operator",
          "type": "address"
        }
      ],
      "name": "addOperator",
      "outputs": [
        {
          "name": "",
          "type": "bool"
        }
      ],
      "payable": false,
      "stateMutability": "nonpayable",
      "type": "function"
    },
    {
      "constant": false,
      "inputs": [
        {
          "name": "_symbol",
          "type": "string"
        },
        {
          "name": "_avg",
          "type": "string"
        },
        {
          "name": "_sell",
          "type": "string"
        },
        {
          "name": "_buy",
          "type": "string"
        }
      ],
      "name": "addNewCurrency",
      "outputs": [
        {
          "name": "",
          "type": "bool"
        }
      ],
      "payable": false,
      "stateMutability": "nonpayable",
      "type": "function"
    },
    {
      "constant": false,
      "inputs": [
        {
          "name": "_id",
          "type": "uint256"
        }
      ],
      "name": "requestCurrencyUpdate",
      "outputs": [],
      "payable": true,
      "stateMutability": "payable",
      "type": "function"
    },
    {
      "constant": false,
      "inputs": [
        {
          "name": "_id",
          "type": "uint256"
        },
        {
          "name": "_avg",
          "type": "string"
        },
        {
          "name": "_sell",
          "type": "string"
        },
        {
          "name": "_buy",
          "type": "string"
        }
      ],
      "name": "updateCurrency",
      "outputs": [
        {
          "name": "",
          "type": "bool"
        }
      ],
      "payable": false,
      "stateMutability": "nonpayable",
      "type": "function"
    },
    {
      "constant": false,
      "inputs": [
        {
          "name": "_value",
          "type": "uint256"
        }
      ],
      "name": "updateUsageFee",
      "outputs": [],
      "payable": false,
      "stateMutability": "nonpayable",
      "type": "function"
    },
    {
      "constant": false,
      "inputs": [],
      "name": "updateGasPrice",
      "outputs": [],
      "payable": false,
      "stateMutability": "nonpayable",
      "type": "function"
    },
    {
      "constant": true,
      "inputs": [
        {
          "name": "_id",
          "type": "uint256"
        }
      ],
      "name": "getCurrency",
      "outputs": [
        {
          "name": "",
          "type": "string"
        },
        {
          "name": "",
          "type": "string"
        },
        {
          "name": "",
          "type": "string"
        },
        {
          "name": "",
          "type": "string"
        },
        {
          "name": "",
          "type": "uint256"
        }
      ],
      "payable": false,
      "stateMutability": "view",
      "type": "function"
    },
    {
      "constant": false,
      "inputs": [],
      "name": "getFunds",
      "outputs": [],
      "payable": false,
      "stateMutability": "nonpayable",
      "type": "function"
    },
    {
      "constant": true,
      "inputs": [],
      "name": "getBalance",
      "outputs": [
        {
          "name": "",
          "type": "uint256"
        }
      ],
      "payable": false,
      "stateMutability": "view",
      "type": "function"
    }
  ],
  "bytecode": "0x6080604052600060035561fde860055565b5e620f4800060065534801561002557600080fd5b50336000806101000a81548173ffffffffffffffffffffffffffffffffffffffff021916908373ffffffffffffffffffffffffffffffffffffffff1602179055503a6004819055506006546005546004540201600281905550611b0d8061008d6000396000f3006080604052600436106100e6576000357c0100000000000000000000000000000000000000000000000000000000900463ffffffff16806312065fe0146100eb5780631b223144146101165780634180c3aa146101415780634d9b373514610294578063570ca735146102ab578063758cdcf0146103025780638da5cb5b1461032d578063921fafad146103845780639870d7fe14610411578063aa0383641461046c578063b68bd45e14610499578063cdf9b77e146104b0578063ddca3f43146106a1578063e7657e15146106cc578063fdb63291146106f7578063fe173b9714610717575b600080fd5b3480156100f757600080fd5b50610100610742565b6040518082815260200191505060405180910390f35b34801561012257600080fd5b5061012b610761565b6040518082815260200191505060405180910390f35b34801561014d57600080fd5b5061027a600480360381019080803590602001908201803590602001908080601f0160208091040260200160405190810160405280939291908181526020018383808284378201915050505050509192919290803590602001908201803590602001908080601f0160208091040260200160405190810160405280939291908181526020018383808284378201915050505050509192919290803590602001908201803590602001908080601f0160208091040260200160405190810160405280939291908181526020018383808284378201915050505050509192919290803590602001908201803590602001908080601f0160208091040260200160405190810160405280939291908181526020018383808284378201915050505050509192919290505050610767565b604051808215151515815260200191505060405180910390f35b3480156102a057600080fd5b506102a9610a07565b005b3480156102b757600080fd5b506102c0610bef565b604051808273ffffffffffffffffffffffffffffffffffffffff1673ffffffffffffffffffffffffffffffffffffffff16815260200191505060405180910390f35b34801561030e57600080fd5b50610317610c15565b6040518082815260200191505060405180910390f35b34801561033957600080fd5b50610342610c1b565b604051808273ffffffffffffffffffffffffffffffffffffffff1673ffffffffffffffffffffffffffffffffffffffff16815260200191505060405180910390f35b34801561039057600080fd5b506103f760048036038101908080359060200190929190803590602001908201803590602001919091929391929390803590602001908201803590602001919091929391929390803590602001908201803590602001919091929391929390505050610c40565b604051808215151515815260200191505060405180910390f35b34801561041d57600080fd5b50610452600480360381019080803573ffffffffffffffffffffffffffffffffffffffff169060200190929190505050610e00565b604051808215151515815260200191505060405180910390f35b34801561047857600080fd5b5061049760048036038101908080359060200190929190505050611135565b005b3480156104a557600080fd5b506104ae6112b8565b005b3480156104bc57600080fd5b506104db60048036038101908080359060200190929190505050611425565b604051808060200180602001806020018060200186815260200185810385528a818151815260200191508051906020019080838360005b8381101561052d578082015181840152602081019050610512565b50505050905090810190601f16801561055a5780820380516001836020036101000a031916815260200191505b50858103845289818151815260200191508051906020019080838360005b83811015610593578082015181840152602081019050610578565b50505050905090810190601f1680156105c05780820380516001836020036101000a031916815260200191505b50858103835288818151815260200191508051906020019080838360005b838110156105f95780820151818401526020810190506105de565b50505050905090810190601f1680156106265780820380516001836020036101000a031916815260200191505b50858103825287818151815260200191508051906020019080838360005b8381101561065f578082015181840152602081019050610644565b50505050905090810190601f16801561068c5780820380516001836020036101000a031916815260200191505b50995050505050505050505060405180910390f35b3480156106ad57600080fd5b506106b6611721565b6040518082815260200191505060405180910390f35b3480156106d857600080fd5b506106e1611727565b6040518082815260200191505060405180910390f35b6107156004803603810190808035906020019092919050505061172d565b005b34801561072357600080fd5b5061072c611986565b6040518082815260200191505060405180910390f35b60003073ffffffffffffffffffffffffffffffffffffffff1631905090565b60055481565b60008060009054906101000a900473ffffffffffffffffffffffffffffffffffffffff1673ffffffffffffffffffffffffffffffffffffffff163373ffffffffffffffffffffffffffffffffffffffff1614806108115750600160009054906101000a900473ffffffffffffffffffffffffffffffffffffffff1673ffffffffffffffffffffffffffffffffffffffff163373ffffffffffffffffffffffffffffffffffffffff16145b1515610885576040517f08c379a00000000000000000000000000000000000000000000000000000000081526004018080602001828103825260158152602001807f53656e646572206e6f74206f706572617461626c65000000000000000000000081525060200191505060405180910390fd5b60036000815480929190600101919050555060a0604051908101604052808681526020018581526020018481526020018381526020014281525060076000600354815260200190815260200160002060008201518160000190805190602001906108f092919061198c565b50602082015181600101908051906020019061090d92919061198c565b50604082015181600201908051906020019061092a92919061198c565b50606082015181600301908051906020019061094792919061198c565b50608082015181600401559050507ffa2bfae7c1f62a2dd95a2faa788d378746b5292cdb721f1d69a6d7e1c3ac08b3600354866040518083815260200180602001828103825283818151815260200191508051906020019080838360005b838110156109c05780820151818401526020810190506109a5565b50505050905090810190601f1680156109ed5780820380516001836020036101000a031916815260200191505b50935050505060405180910390a160019050949350505050565b6000809054906101000a900473ffffffffffffffffffffffffffffffffffffffff1673ffffffffffffffffffffffffffffffffffffffff163373ffffffffffffffffffffffffffffffffffffffff16141515610acb576040517f08c379a00000000000000000000000000000000000000000000000000000000081526004018080602001828103825260108152602001807f53656e646572206e6f74206f776e65720000000000000000000000000000000081525060200191505060405180910390fd5b6000809054906101000a900473ffffffffffffffffffffffffffffffffffffffff1673ffffffffffffffffffffffffffffffffffffffff166108fc3073ffffffffffffffffffffffffffffffffffffffff16319081150290604051600060405180830381858888f19350505050158015610b49573d6000803e3d6000fd5b507f587b6b575653f3ff267c1ff84ce71e792e3f6282275425115c136565c6d891996000809054906101000a900473ffffffffffffffffffffffffffffffffffffffff163073ffffffffffffffffffffffffffffffffffffffff1631604051808373ffffffffffffffffffffffffffffffffffffffff1673ffffffffffffffffffffffffffffffffffffffff1681526020018281526020019250505060405180910390a1565b600160009054906101000a900473ffffffffffffffffffffffffffffffffffffffff1681565b60025481565b6000809054906101000a900473ffffffffffffffffffffffffffffffffffffffff1681565b6000806000809054906101000a900473ffffffffffffffffffffffffffffffffffffffff1673ffffffffffffffffffffffffffffffffffffffff163373ffffffffffffffffffffffffffffffffffffffff161480610ceb5750600160009054906101000a900473ffffffffffffffffffffffffffffffffffffffff1673ffffffffffffffffffffffffffffffffffffffff163373ffffffffffffffffffffffffffffffffffffffff16145b1515610d5f576040517f08c379a00000000000000000000000000000000000000000000000000000000081526004018080602001828103825260158152602001807f53656e646572206e6f74206f706572617461626c65000000000000000000000081525060200191505060405180910390fd5b600760008a815260200190815260200160002090508787826001019190610d87929190611a0c565b508585826002019190610d9b929190611a0c565b508383826003019190610daf929190611a0c565b504281600401819055507f508cd0fb200c4ecf00738c5647591bcecf1c918aec10b4be132cb87b453471e7896040518082815260200191505060405180910390a16001915050979650505050505050565b60008060009054906101000a900473ffffffffffffffffffffffffffffffffffffffff1673ffffffffffffffffffffffffffffffffffffffff163373ffffffffffffffffffffffffffffffffffffffff161480610eaa5750600160009054906101000a900473ffffffffffffffffffffffffffffffffffffffff1673ffffffffffffffffffffffffffffffffffffffff163373ffffffffffffffffffffffffffffffffffffffff16145b1515610f1e576040517f08c379a00000000000000000000000000000000000000000000000000000000081526004018080602001828103825260158152602001807f53656e646572206e6f74206f706572617461626c65000000000000000000000081525060200191505060405180910390fd5b600073ffffffffffffffffffffffffffffffffffffffff168273ffffffffffffffffffffffffffffffffffffffff1614151515610fc3576040517f08c379a00000000000000000000000000000000000000000000000000000000081526004018080602001828103825260118152602001807f4e6f742076616c6964206164647265737300000000000000000000000000000081525060200191505060405180910390fd5b6000809054906101000a900473ffffffffffffffffffffffffffffffffffffffff1673ffffffffffffffffffffffffffffffffffffffff168273ffffffffffffffffffffffffffffffffffffffff1614151515611088576040517f08c379a00000000000000000000000000000000000000000000000000000000081526004018080602001828103825260118152602001807f41646472657373206e6f74206f776e657200000000000000000000000000000081525060200191505060405180910390fd5b81600160006101000a81548173ffffffffffffffffffffffffffffffffffffffff021916908373ffffffffffffffffffffffffffffffffffffffff1602179055507ff348e9044ea604bfe109a6770dd236daa1cef5b92e6dbda1604e88e0b0f7240d82604051808273ffffffffffffffffffffffffffffffffffffffff1673ffffffffffffffffffffffffffffffffffffffff16815260200191505060405180910390a160019050919050565b6000809054906101000a900473ffffffffffffffffffffffffffffffffffffffff1673ffffffffffffffffffffffffffffffffffffffff163373ffffffffffffffffffffffffffffffffffffffff1614806111dd5750600160009054906101000a900473ffffffffffffffffffffffffffffffffffffffff1673ffffffffffffffffffffffffffffffffffffffff163373ffffffffffffffffffffffffffffffffffffffff16145b1515611251576040517f08c379a00000000000000000000000000000000000000000000000000000000081526004018080602001828103825260158152602001807f53656e646572206e6f74206f706572617461626c65000000000000000000000081525060200191505060405180910390fd5b6512309ce54000811015151561126657600080fd5b8060068190555060065460055460045402016002819055507ff5c5f8be16fbaca4ea4e248299a4d0f566f2c1e919ca419505c9f7b5dd16559c816040518082815260200191505060405180910390a150565b6000809054906101000a900473ffffffffffffffffffffffffffffffffffffffff1673ffffffffffffffffffffffffffffffffffffffff163373ffffffffffffffffffffffffffffffffffffffff1614806113605750600160009054906101000a900473ffffffffffffffffffffffffffffffffffffffff1673ffffffffffffffffffffffffffffffffffffffff163373ffffffffffffffffffffffffffffffffffffffff16145b15156113d4576040517f08c379a00000000000000000000000000000000000000000000000000000000081526004018080602001828103825260158152602001807f53656e646572206e6f74206f706572617461626c65000000000000000000000081525060200191505060405180910390fd5b3a60048190555060065460055460045402016002819055507f50443d5283dc71e7590b00572aa8e9603046419bc87f0213413a25850f41cf423a6040518082815260200191505060405180910390a1565b6060806060806000611435611a8c565b6007600088815260200190815260200160002060a06040519081016040529081600082018054600181600116156101000203166002900480601f0160208091040260200160405190810160405280929190818152602001828054600181600116156101000203166002900480156114ed5780601f106114c2576101008083540402835291602001916114ed565b820191906000526020600020905b8154815290600101906020018083116114d057829003601f168201915b50505050508152602001600182018054600181600116156101000203166002900480601f01602080910402602001604051908101604052809291908181526020018280546001816001161561010002031660029004801561158f5780601f106115645761010080835404028352916020019161158f565b820191906000526020600020905b81548152906001019060200180831161157257829003601f168201915b50505050508152602001600282018054600181600116156101000203166002900480601f0160208091040260200160405190810160405280929190818152602001828054600181600116156101000203166002900480156116315780601f1061160657610100808354040283529160200191611631565b820191906000526020600020905b81548152906001019060200180831161161457829003601f168201915b50505050508152602001600382018054600181600116156101000203166002900480601f0160208091040260200160405190810160405280929190818152602001828054600181600116156101000203166002900480156116d35780601f106116a8576101008083540402835291602001916116d3565b820191906000526020600020905b8154815290600101906020018083116116b657829003601f168201915b50505050508152602001600482015481525050905080600001518160200151826040015183606001518460800151849450839350829250819150955095509550955095505091939590929450565b60065481565b60035481565b8060b460076000838152602001908152602001600020600401544203101515156117bf576040517f08c379a00000000000000000000000000000000000000000000000000000000081526004018080602001828103825260168152602001807f557064617465206672657175656e6379206c696d69740000000000000000000081525060200191505060405180910390fd5b60025434141515611838576040517f08c379a000000000000000000000000000000000000000000000000000000000815260040180806020018281038252601b8152602001807f6d73672e76616c756520213d207468616e20757064617465466565000000000081525060200191505060405180910390fd5b600454600554026000809054906101000a900473ffffffffffffffffffffffffffffffffffffffff1673ffffffffffffffffffffffffffffffffffffffff163110156118e7576000809054906101000a900473ffffffffffffffffffffffffffffffffffffffff1673ffffffffffffffffffffffffffffffffffffffff166108fc349081150290604051600060405180830381858888f193505050501580156118e5573d6000803e3d6000fd5b505b600454600554026000809054906101000a900473ffffffffffffffffffffffffffffffffffffffff1673ffffffffffffffffffffffffffffffffffffffff16311015151561193457600080fd5b3373ffffffffffffffffffffffffffffffffffffffff167f446ab0efbc8ee626d8f39bdd579a760877f4efadfb7638a3e5ed7d796f11b6d4836040518082815260200191505060405180910390a25050565b60045481565b828054600181600116156101000203166002900490600052602060002090601f016020900481019282601f106119cd57805160ff19168380011785556119fb565b828001600101855582156119fb579182015b828111156119fa5782518255916020019190600101906119df565b5b509050611a089190611abc565b5090565b828054600181600116156101000203166002900490600052602060002090601f016020900481019282601f10611a4d57803560ff1916838001178555611a7b565b82800160010185558215611a7b579182015b82811115611a7a578235825591602001919060010190611a5f565b5b509050611a889190611abc565b5090565b60a06040519081016040528060608152602001606081526020016060815260200160608152602001600081525090565b611ade91905b80821115611ada576000816000905550600101611ac2565b5090565b905600a165627a7a723058203ea8bcae86d6fb166c1f2c10a359927cb86147fcf6f165c3abbbd7524e4a4c8d0029",
  "source": "pragma solidity ^0.4.24;\n\ncontract currencyOracle{ \n\n    /**\n        Contract variables\n     */\n\n    address public owner;\n    address public operator;\n    uint256 public updateFee;\n    uint public ids = 0;\n    uint public gasPrice;\n    uint public updateGas = 65000;\n    uint public fee = 0.0002 ether;\n\n    struct Currency {\n        string symbol;\n        string value_avg;\n        string value_sell;\n        string value_buy;\n        uint last_updated;\n    }\n    \n    mapping (uint => Currency) currencies;\n\n\n    /**\n        Event declarations\n     */\n\n    event addNewCurrencyEvent(uint id, string symbol);\n    event requestCurrencyUpdateEvent(address indexed from, uint id);\n    event updateCurrencyEvent(uint id);\n    event updatedFeeEvent(uint value);\n    event updatedGasPriceEvent(uint value);\n    event collectedBalanceFundsEvent(address addr, uint amount);\n    event addedNewOperatorEvent(address addr);\n\n    //Contract Constructor\n    constructor() public {\n        owner = msg.sender;\n        gasPrice = tx.gasprice;\n        updateFee = gasPrice * updateGas + fee;\n    }\n    \n    //Function modifiers\n\n    modifier operatable(){\n        require(msg.sender == owner || msg.sender == operator, \"Sender not operatable\");\n        _;\n    }\n\n    modifier lastUpdateCheck(uint _id){\n        require((now - currencies[_id].last_updated) >= 3 minutes, \"Update frequency limit\");\n        _;\n    }\n\n    modifier checkFee(){\n        require(msg.value == updateFee, \"msg.value != than updateFee\");\n        _;\n    }\n   \n    modifier checkOwnerFunds(){\n        if(owner.balance < updateGas*gasPrice){\n            owner.transfer(msg.value);\n        }\n        require(owner.balance >= updateGas*gasPrice);\n        _;\n    }\n\n    /**\n     * @notice Add a new operator address\n     * @param _operator new operator address\n     */\n    function addOperator(address _operator) public operatable returns (bool){\n        require(_operator != address(0), \"Not valid address\"); //Operator must be valid address\n        require(_operator != owner, \"Address not owner\"); //Operator address must be different than owner address\n        operator = _operator;\n        emit addedNewOperatorEvent(_operator);\n        return true;\n    }\n\n    /**\n     * @notice Add new currencty to the contract structure\n     * @param _symbol currency symbol\n     * @param _avg currency avg value\n     * @param _sell currency sell value\n     * @param _buy currency buy value\n     */\n    function addNewCurrency(string _symbol, string _avg, string _sell, string _buy) \n        public operatable returns (bool) {\n        ids++;\n        currencies[ids] = Currency(_symbol, _avg, _sell, _buy, now);\n        emit addNewCurrencyEvent(ids, _symbol);\n        return true;\n    }\n\n    /**\n     * @notice Payable function to request currency update, the emitted event fires the update retrieval\n     * @param _id currency to update\n     */\n    function requestCurrencyUpdate(uint _id) public \n        payable lastUpdateCheck(_id) checkFee checkOwnerFunds {\n        emit requestCurrencyUpdateEvent(msg.sender, _id);\n    }\n\n    /**\n     * @notice Function called from the backend service to update currency value as requesteds\n     * @param _id currency id\n     * @param _avg currency avg value\n     * @param _sell currency sell value\n     * @param _buy currency buy value\n     */\n    function updateCurrency(uint _id, string _avg, string _sell, string _buy) \n        external operatable returns (bool) {\n        \n        Currency storage c = currencies[_id];\n        c.value_avg = _avg;\n        c.value_sell = _sell;\n        c.value_buy = _buy;\n        c.last_updated = now;\n        emit updateCurrencyEvent(_id);\n        return true;\n    }\n\n    /**\n     * @notice Change the fee to pay in order to update currency\n     * @param _value new fee value\n     */\n    function updateUsageFee(uint256 _value) public operatable {\n        require(_value >= 0.00002 ether);\n        fee = _value;\n        updateFee = gasPrice * updateGas + fee;\n        emit updatedFeeEvent(_value);\n    }\n\n    function updateGasPrice() public operatable {\n        gasPrice = tx.gasprice;\n        updateFee = gasPrice * updateGas + fee;\n        emit updatedGasPriceEvent(tx.gasprice);\n    }\n    /**\n     * @notice Gets information about the currency\n     * @param _id currency internal ID\n     * @return currency struct\n     */\n    function getCurrency(uint _id) public view returns (string, string, string, string, uint){\n        Currency memory c = currencies[_id];\n        return (c.symbol, c.value_avg, c.value_sell, c.value_buy, c.last_updated);\n    }\n\n    /**\n     * @notice Withdraw funds from contract to owner\n     */\n    function getFunds() public {\n        require(msg.sender == owner, \"Sender not owner\");\n        owner.transfer(address(this).balance);\n        emit collectedBalanceFundsEvent(owner, address(this).balance);\n    }\n\n    /**\n     * @notice get Contract balance\n     * @return contract balance\n     */\n    function getBalance() public view returns (uint){\n        return address(this).balance;\n    }\n    /**\n     * @notice default fallback function to prevent Ether sending to the contract\n     */\n    function () public payable {\n        revert();\n    }\n\n}//end cotization_Oracle",
  "sourcePath": "/home/castor/Documentos/blockchainPruebas/bitsign-oracle/contracts/currencyOracle.sol",
  "compiler": {
    "name": "solc",
    "version": "0.4.24+commit.e67f0147.Emscripten.clang"
  },
  "schemaVersion": "2.0.1",
  "updatedAt": "2018-09-14T14:12:44.871Z"
}